:020000040800F2
:10000000A048002401040008A1040008B10400086D
:10001000C1040008D1040008E1040008030400083A
:10002000030400080304000803040008F1040008A6
:1000300001050008030400084104000801690008E4
:100040000304000803040008030400080304000874
:100050000304000803040008030400080304000864
:1000600003040008030400080304000841230008F7
:100070005123000861230008712300088123000830
:1000800091230008A1230008B123000803040008FD
:100090000304000803040008030400080304000824
:1000A0000304000803040008030400080304000814
:1000B0000304000803040008030400080304000804
:1000C0000304000803040008030400083163000867
:1000D0004163000803040008030400080304000847
:1000E00003040008030400080304000803040008D4
:1000F00003040008030400080304000803040008C4
:100100000304000803040008030400085163000806
:1001100061630008030400080304000803040008E6
:10012000C1230008D1230008E1230008F1230008BF
:1001300001240008112400082124000831240008AB
:100140000304000803040008030400080304000873
:100150000304000803040008030400080304000863
:100160000304000803040008030400080304000853
:100170000304000803040008030400080304000843
:100180000304000803040008030400080304000833
:10019000C1540008E1540008015500081155000839
:1001A0003155000851550008615500088155000877
:1001B000A1550008B1550008D1550008F1550008B7
:1001C00003040008030400080304000803040008F3
:1001D00003040008030400080304000803040008E3
:1001E00003040008030400080304000803040008D3
:1001F00003040008030400080304000803040008C3
:0804000086E000F000F8FEE7C1
:1004400071B600B506F0DCF95DF804EB1EF0040FA0
:100450000CBFEFF30880EFF3098020E9F04F1EF0A6
:10046000040F08BF80F3088826490968002918BFCF
:100470000860254909680868B0E8F04FEFF3148177
:100480001EF0040F07BF21F0030180F3088841F03C
:10049000020180F3098881F3148861B6704700BFB8
:1004A000FEE700BFAFF30080AFF30080AFF3008042
:1004B000FEE700BFAFF30080AFF30080AFF3008032
:1004C000FEE700BFAFF30080AFF30080AFF3008022
:1004D000FEE700BFAFF30080AFF30080AFF3008012
:1004E000FEE700BFAFF30080AFF30080AFF3008002
:1004F000FEE700BFAFF30080AFF30080AFF30080F2
:10050000FEE70000B82F0024B42F002400000000F4
:1005100000200021444A454BE2E802019A42FBDBFD
:100520004349444A00240025E1E802459142FBDBAF
:10053000414A002A08D041483D498B18F0E802455D
:10054000E1E802459942F9DB00203D493D4A086057
:1005500048608860C860086148618861C86120316E
:100560009142F4DB384A002A08D0384834498B18C5
:1005700004680C60043004319942F9DB72B63448E7
:1005800080F30888334880F309883348334908608A
:1005900040F20000CCF200004EF63471CEF20001C1
:1005A0000860BFF34F8FBFF36F8F40F20000C0F2BF
:1005B000F0004EF68851CEF200010860BFF34F8F75
:1005C000BFF36F8F0020E1EE100A4EF63C71CEF2C1
:1005D00000010860062080F31488BFF36F8F01F0DC
:1005E000AFFB01F0D5FB1E491E4A1F4B9A4204DAAD
:1005F0000868106004310432F8E701F0D1FB1B4CAD
:100600001B4DAC4203DA216888470434F9E701F056
:10061000FFFA184C184DAC4203DA216888470434BD
:10062000F9E71649084700000000002400000224F2
:1006300000000000008000001C000000F09900088D
:100640000000002000000120000000000C9A0008BB
:10065000A0480024A05800240100000808ED00E094
:100660000C9A000800000024480800240804000830
:10067000080400080804000808040008B11D000868
:10068000844641EA000313F003036DD1403A41D39D
:1006900051F8043B40F8043B51F8043B40F8043B5C
:1006A00051F8043B40F8043B51F8043B40F8043B4C
:1006B00051F8043B40F8043B51F8043B40F8043B3C
:1006C00051F8043B40F8043B51F8043B40F8043B2C
:1006D00051F8043B40F8043B51F8043B40F8043B1C
:1006E00051F8043B40F8043B51F8043B40F8043B0C
:1006F00051F8043B40F8043B51F8043B40F8043BFC
:1007000051F8043B40F8043B51F8043B40F8043BEB
:10071000403ABDD2303211D351F8043B40F8043B8B
:1007200051F8043B40F8043B51F8043B40F8043BCB
:1007300051F8043B40F8043B103AEDD20C3205D39B
:1007400051F8043B40F8043B043AF9D2043208D093
:10075000D2071CBF11F8013B00F8013B01D30B8805
:1007600003806046704700BF082A13D38B078DD0E3
:1007700010F003038AD0C3F10403D21ADB071CBFB5
:1007800011F8013B00F8013B80D331F8023B20F81F
:10079000023B7BE7043AD9D3013A11F8013B00F858
:1007A000013BF9D20B7803704B7843708B788370E0
:1007B00060467047000000000000000000000000DC
:1007C00090F800F06DE9024520F007016FF0000C91
:1007D00010F0070491F820F040F049804FF0000439
:1007E0006FF00700D1E9002391F840F000F1080014
:1007F00082FA4CF2A4FA8CF283FA4CF3A2FA8CF34C
:100800004BBBD1E9022382FA4CF200F10800A4FAB2
:100810008CF283FA4CF3A2FA8CF3E3B9D1E9042306
:1008200082FA4CF200F10800A4FA8CF283FA4CF33D
:10083000A2FA8CF37BB9D1E9062301F1200182FAF7
:100840004CF200F10800A4FA8CF283FA4CF3A2FAFD
:100850008CF3002BC6D0002A04BF04301A4612BA0B
:10086000B2FA82F2FDE8024500EBD2007047D1E90E
:10087000002304F00305C4F100004FEAC50514F09D
:10088000040F91F840F00CFA05F562EA05021CBF6E
:1008900063EA050362464FF00004A9E70000000088
:1008A00001F0FF01102A2BDB10F0070F08D010F821
:1008B000013B013A8B422DD010F0070F42B3F6D125
:1008C000F0B441EA012141EA014122F007047FF03E
:1008D00000070023F0E80256083C85EA010586EA95
:1008E000010685FA47F5A3FA87F586FA47F6A5FAD1
:1008F00087F68EB9EED1F0BC01F0FF0102F00702DD
:1009000032B110F8013B013A83EA010313B1F8D187
:100910000020704701387047002D06BF3546033868
:10092000073815F0010F07D1013015F4807F02BFA1
:10093000013015F4C03F0130F0BC0138704700BFF2
:1009400000B585B003460A46ADF8063013468DF86B
:100950000530BDF806301B099BB28DF80F30BDF88D
:100960000630DBB203F00F038DF80E309DF80F3028
:10097000184601F0DDFE0290029B002B19D0029B6D
:100980001A689DF80E305B00032101FA03F3DB4384
:100990001A40029B1A60029B1A689DF8053003F00A
:1009A00003019DF80E305B0001FA03F31A43029B2A
:1009B0001A6000BF05B05DF804FB00BF0000000036
:1009C00000B585B003460A46ADF8063013468DF8EB
:1009D0000530BDF806301B099BB28DF80F30BDF80D
:1009E0000630DBB203F00F038DF80E309DF80F30A8
:1009F000184601F09DFE0290029B002B17D0029B2F
:100A00005A689DF80E30012101FA03F3DB431A40C6
:100A1000029B5A60029B5A689DF8053003F0010161
:100A20009DF80E3001FA03F31A43029B5A6000BF8F
:100A300005B05DF804FB00BF0000000000000000EE
:100A400000B585B003460A46ADF8063013468DF86A
:100A50000530BDF806301B099BB28DF80F30BDF88C
:100A60000630DBB203F00F038DF80E309DF80F3027
:100A7000184601F05DFE0290029B002B19D0029BEC
:100A80009A689DF80E305B00032101FA03F3DB4303
:100A90001A40029B9A60029B9A689DF8053003F009
:100AA00003019DF80E305B0001FA03F31A43029B29
:100AB0009A6000BF05B05DF804FB00BF00000000B5
:100AC00000B585B003460A46ADF8063013468DF8EA
:100AD0000530BDF806301B099BB28DF80F30BDF80C
:100AE0000630DBB203F00F038DF80E309DF80F30A7
:100AF000184601F01DFE0290029B002B19D0029BAC
:100B0000DA689DF80E305B00032101FA03F3DB4342
:100B10001A40029BDA60029BDA689DF8053003F008
:100B200003019DF80E305B0001FA03F31A43029BA8
:100B3000DA6000BF05B05DF804FB00BF00000000F4
:100B400000B585B003460A46ADF8063013468DF869
:100B50000530BDF806301B099BB28DF80F30BDF88B
:100B60000630DBB203F00F038DF80E309DF80F3026
:100B7000184601F0DDFD0290029B002B3AD09DF853
:100B80000E30072B1AD8029B1A6A9DF80E309B0074
:100B90000F2101FA03F3DB431A40029B1A62029B06
:100BA0001A6A9DF8053003F00F019DF80E309B0086
:100BB00001FA03F31A43029B1A621BE0029B5A6A72
:100BC0009DF80E30083B9B000F2101FA03F3DB4335
:100BD0001A40029B5A62029B5A6A9DF8053003F044
:100BE0000F019DF80E30083B9B0001FA03F31A43F6
:100BF000029B5A6200BF05B05DF804FB00000000D4
:100C000000B585B003460A46ADF8063013468DF8A8
:100C10000530BDF806301B099BB28DF80F30BDF8CA
:100C20000630DBB203F00F038DF80E309DF80F3065
:100C3000184601F07DFD0290029B002B19D0029B0B
:100C40009A6A9DF80E305B00032101FA03F3DB433F
:100C50001A40029B9A62029B9A6A9DF8053003F043
:100C600003019DF80E305B0001FA03F31A43029B67
:100C70009A6200BF05B05DF804FB00BF00000000F1
:100C800000B585B003460A46ADF8063013468DF828
:100C90000530BDF806301B099BB28DF80F30BDF84A
:100CA0000630DBB203F00F038DF80E309DF80F30E5
:100CB000184601F03DFD0290029B002B17D0029BCD
:100CC000DA6A9DF80E30012101FA03F3DB431A4082
:100CD000029BDA62029BDA6A9DF8053003F001019B
:100CE0009DF80E3001FA03F31A43029BDA6200BF4B
:100CF00005B05DF804FB00BF00000000000000002C
:100D000000B585B003460A46ADF8063013468DF8A7
:100D10000530BDF806301B099BB28DF80F30BDF8C9
:100D20000630DBB203F00F038DF80E309DF80F3064
:100D3000184601F0FDFC0290029B002B17D0029B8D
:100D40001A6B9DF80E30012101FA03F3DB431A40C0
:100D5000029B1A63029B1A6B9DF8053003F0010198
:100D60009DF80E3001FA03F31A43029B1A6300BF89
:100D700005B05DF804FB00BF0000000000000000AB
:100D800000B585B003460A46ADF8063013468DF827
:100D90000530BDF806301B099BB28DF80F30BDF849
:100DA0000630DBB203F00F038DF80E309DF80F30E4
:100DB000184601F0BDFC0290029B002B17D0029B4D
:100DC0005A6B9DF80E30012101FA03F3DB431A4000
:100DD000029B5A63029B5A6B9DF8053003F0010198
:100DE0009DF80E3001FA03F31A43029B5A6300BFC9
:100DF00005B05DF804FB00BF00000000000000002B
:100E000000B583B003460091ADF80630009BDBB21D
:100E100003F00303DAB2BDF8063011461846FFF7B7
:100E20008FFD009B9B0803F00103DAB2BDF806308A
:100E300011461846FFF7C4FD009BDB0803F00303CF
:100E4000DAB2BDF8063011461846FFF7F9FD009BEF
:100E50005B0903F00303DAB2BDF806301146184609
:100E6000FFF72EFE009BDB09DBB203F00F03DAB2C3
:100E7000BDF8063011461846FFF762FE009BDB0AFC
:100E800003F00303DAB2BDF8063011461846FFF747
:100E9000B7FE009B5B0B03F00103DAB2BDF806302E
:100EA00011461846FFF7ECFE009B9B0B03F0010375
:100EB000DAB2BDF8063011461846FFF721FF009B55
:100EC000DB0B03F00103DAB2BDF806301146184619
:100ED000FFF756FF00BF03B05DF804FB0000000001
:100EE00008B542F282010020FFF78AFF822101202B
:100EF000FFF786FF42F282010220FFF781FF42F2F4
:100F000002210320FFF77CFF42F212310420FFF799
:100F100077FF40F212310520FFF772FF42F20231F3
:100F20000620FFF76DFF42F202310720FFF768FF4E
:100F300042F202310820FFF763FF40F212310B202A
:100F4000FFF75EFF42F212310C20FFF759FF42F229
:100F500003010D20FFF754FF42F203010E20FFF7BB
:100F60004FFF42F203010F20FFF74AFF42F2030155
:100F70001020FFF745FF03211120FFF741FF42F248
:100F800003011220FFF73CFF42F203011320FFF799
:100F900037FF42F203011420FFF732FF42F2030150
:100FA0001520FFF72DFF42F203011620FFF728FF5F
:100FB00042F203011720FFF723FF42F2030118203A
:100FC000FFF71EFF42F203011920FFF719FF42F25B
:100FD00003011A20FFF714FF42F203011B20FFF761
:100FE0000FFF42F203011C20FFF70AFF42F2030148
:100FF0001D20FFF705FF42F203011E20FFF700FF4F
:1010000042F203011F20FFF7FBFE42F20301202002
:10101000FFF7F6FE42F203012120FFF7F1FE42F254
:1010200003012220FFF7ECFE42F203012320FFF729
:10103000E7FE42F203012420FFF7E2FE0321252010
:10104000FFF7DEFE42F203012620FFF7D9FE42F24F
:1010500003012720FFF7D4FE42F203012820FFF707
:10106000CFFE42F203012920FFF7CAFE42F203013C
:101070002A20FFF7C5FE42F203012B20FFF7C0FE36
:1010800042F203012C20FFF7BBFE4FF400512D204C
:10109000FFF7B6FE40F202212E20FFF7B1FE42F22A
:1010A00002212F20FFF7ACFE40F202213020FFF793
:1010B000A7FE42F202213120FFF7A2FE42F20221F6
:1010C0003220FFF79DFE40F202213320FFF798FE09
:1010D00042F202213420FFF793FE40F20221352034
:1010E000FFF78EFE42F202213620FFF789FE4FF411
:1010F000C1713720FFF784FE4FF4C1713820FFF72C
:101100007FFE42F282113920FFF77AFE4FF4C1715F
:101110003A20FFF775FE4FF4C1713B20FFF770FED8
:101120004FF4C1713C20FFF76BFE4FF4C1713D20BD
:10113000FFF766FE4FF4C1713E20FFF761FE4FF4EA
:10114000C1713F20FFF75CFE11214020FFF758FEE0
:101150004FF4C1714120FFF753FE4FF4C17142209B
:10116000FFF74EFE4FF4C1714320FFF749FE4FF4E5
:10117000C1714420FFF744FE42F292214520FFF75F
:101180003FFE42F292214620FFF73AFE42F29221C0
:101190004720FFF735FE42F292214820FFF730FE4C
:1011A0004FF4C1714920FFF72BFE4FF4C1714A2063
:1011B000FFF726FE4FF4C1714B20FFF721FE4FF4DD
:1011C000C1714C20FFF71CFE11214D20FFF718FEC6
:1011D0004FF4C1714E20FFF713FE4FF4C1714F2041
:1011E000FFF70EFE4FF4C1715020FFF709FE4FF4D8
:1011F000C1715120FFF704FE4FF4C1715220FFF777
:10120000FFFD4FF4C1715320FFF7FAFD4FF4C17198
:101210005420FFF7F5FD4FF4C1715520FFF7F0FDA5
:1012200042F282115620FFF7EBFD42F29221652037
:10123000FFF7E6FD42F292216620FFF7E1FD42F260
:1012400092216720FFF7DCFD42F292216820FFF730
:10125000D7FD42F292216920FFF7D2FD42F292219E
:101260006A20FFF7CDFD42F292216B20FFF7C8FD07
:1012700042F292216C20FFF7C3FD42F202116D2071
:10128000FFF7BEFD42F202116E20FFF7B9FD42F2F8
:1012900002116F20FFF7B4FD42F202117020FFF738
:1012A000AFFD42F202117120FFF7AAFD42F2820166
:1012B0007220FFF7A5FD42F282017320FFF7A0FD27
:1012C00042F282017420FFF79BFD42F282017520F9
:1012D000FFF796FD42F282017620FFF791FD822111
:1012E0007720FFF78DFD42F282017820FFF788FD1D
:1012F00042F282017920FFF783FD40F212317A2019
:10130000FFF77EFD42F212317B20FFF779FD40F2BC
:1013100012317C20FFF774FD42F212317D20FFF77D
:101320006FFD42F282317E20FFF76AFD40F282318A
:101330007F20FFF765FD42F202218020FFF760FD6C
:1013400040F202218120FFF75BFD42F20221822060
:10135000FFF756FD40F202218320FFF751FD42F2D4
:1013600002218420FFF74CFD40F202218520FFF787
:1013700047FD42F202218620FFF742FD40F20221A2
:101380008720FFF73DFD42F202218820FFF738FD5C
:1013900042F202218920FFF733FD00BF08BD00BFE4
:1013A00000B583B00346ADF80630BDF8063003F053
:1013B0000103002B01D000F003FDBDF8063003F05F
:1013C0000203002B01D001F093F9BDF8063003F0C1
:1013D0000403002B01D0FFF783FDBDF8063003F0B6
:1013E0001003002B01D005F04BF800BF03B05DF8EF
:1013F00004FB00BF0000000000000000000000002F
:1014000082B082B0019002A981E80C009DF85830AA
:10141000002B14D19DF80C30002B10D1049BB3F598
:10142000FE6F0CD1069B084A1360079B064A536067
:10143000064B1B780133DAB2044B1A7000E0FEE76A
:1014400002B002B0704700BF4808002450080024D2
:1014500082B00190009100BF02B070470000000010
:1014600082B00190009100BF02B070470000000000
:1014700000B583B0254803F07BF80021234803F032
:101480008FF82349214803F0A3F800211F4803F0F7
:10149000AFF800211D4803F0C3F81E491B4803F0B4
:1014A000D7F80021194803F063F9072301930223B9
:1014B0000093002300224FF4FE61144803F0D8F893
:1014C00004230193042300930423042204210F48DE
:1014D00003F0EEF800210D4803F01AF900210B4843
:1014E00003F02EF90C49094803F05AF90B49074853
:1014F00003F066F90A49054803F062F9034803F06E
:101500006FF900BF03B05DF804FB00BFF8080024CA
:10151000EE0A000240420F000114000851140008B6
:10152000611400080000000000000000000000003E
:1015300000B585B003460A46ADF8063013468DF86F
:101540000530BDF806301B099BB28DF80F30BDF891
:101550000630DBB203F00F038DF80E309DF80F302C
:10156000184601F0E5F80290029B002B19D0029B6F
:101570001A689DF80E305B00032101FA03F3DB4388
:101580001A40029B1A60029B1A689DF8053003F00E
:1015900003019DF80E305B0001FA03F31A43029B2E
:1015A0001A6000BF05B05DF804FB00BF000000003A
:1015B00000B585B003460A46ADF8063013468DF8EF
:1015C0000530BDF806301B099BB28DF80F30BDF811
:1015D0000630DBB203F00F038DF80E309DF80F30AC
:1015E000184601F0A5F80290029B002B17D0029B31
:1015F0005A689DF80E30012101FA03F3DB431A40CB
:10160000029B5A60029B5A689DF8053003F0010165
:101610009DF80E3001FA03F31A43029B5A6000BF93
:1016200005B05DF804FB00BF0000000000000000F2
:1016300000B585B003460A46ADF8063013468DF86E
:101640000530BDF806301B099BB28DF80F30BDF890
:101650000630DBB203F00F038DF80E309DF80F302B
:10166000184601F065F80290029B002B19D0029BEE
:101670009A689DF80E305B00032101FA03F3DB4307
:101680001A40029B9A60029B9A689DF8053003F00D
:1016900003019DF80E305B0001FA03F31A43029B2D
:1016A0009A6000BF05B05DF804FB00BF00000000B9
:1016B00000B585B003460A46ADF8063013468DF8EE
:1016C0000530BDF806301B099BB28DF80F30BDF810
:1016D0000630DBB203F00F038DF80E309DF80F30AB
:1016E000184601F025F80290029B002B19D0029BAE
:1016F000DA689DF80E305B00032101FA03F3DB4347
:101700001A40029BDA60029BDA689DF8053003F00C
:1017100003019DF80E305B0001FA03F31A43029BAC
:10172000DA6000BF05B05DF804FB00BF00000000F8
:1017300000B585B003460A46ADF8063013468DF86D
:101740000530BDF806301B099BB28DF80F30BDF88F
:101750000630DBB203F00F038DF80E309DF80F302A
:10176000184600F0E5FF0290029B002B3AD09DF84E
:101770000E30072B1AD8029B1A6A9DF80E309B0078
:101780000F2101FA03F3DB431A40029B1A62029B0A
:101790001A6A9DF8053003F00F019DF80E309B008A
:1017A00001FA03F31A43029B1A621BE0029B5A6A76
:1017B0009DF80E30083B9B000F2101FA03F3DB4339
:1017C0001A40029B5A62029B5A6A9DF8053003F048
:1017D0000F019DF80E30083B9B0001FA03F31A43FA
:1017E000029B5A6200BF05B05DF804FB00000000D8
:1017F00000B585B003460A46ADF8063013468DF8AD
:101800000530BDF806301B099BB28DF80F30BDF8CE
:101810000630DBB203F00F038DF80E309DF80F3069
:10182000184600F085FF0290029B002B19D0029B06
:101830009A6A9DF80E305B00032101FA03F3DB4343
:101840001A40029B9A62029B9A6A9DF8053003F047
:1018500003019DF80E305B0001FA03F31A43029B6B
:101860009A6200BF05B05DF804FB00BF00000000F5
:1018700000B585B003460A46ADF8063013468DF82C
:101880000530BDF806301B099BB28DF80F30BDF84E
:101890000630DBB203F00F038DF80E309DF80F30E9
:1018A000184600F045FF0290029B002B17D0029BC8
:1018B000DA6A9DF80E30012101FA03F3DB431A4086
:1018C000029BDA62029BDA6A9DF8053003F001019F
:1018D0009DF80E3001FA03F31A43029BDA6200BF4F
:1018E00005B05DF804FB00BF000000000000000030
:1018F00000B585B003460A46ADF8063013468DF8AC
:101900000530BDF806301B099BB28DF80F30BDF8CD
:101910000630DBB203F00F038DF80E309DF80F3068
:10192000184600F005FF0290029B002B17D0029B87
:101930001A6B9DF80E30012101FA03F3DB431A40C4
:10194000029B1A63029B1A6B9DF8053003F001019C
:101950009DF80E3001FA03F31A43029B1A6300BF8D
:1019600005B05DF804FB00BF0000000000000000AF
:1019700000B585B003460A46ADF8063013468DF82B
:101980000530BDF806301B099BB28DF80F30BDF84D
:101990000630DBB203F00F038DF80E309DF80F30E8
:1019A000184600F0C5FE0290029B002B17D0029B48
:1019B0005A6B9DF80E30012101FA03F3DB431A4004
:1019C000029B5A63029B5A6B9DF8053003F001019C
:1019D0009DF80E3001FA03F31A43029B5A6300BFCD
:1019E00005B05DF804FB00BF00000000000000002F
:1019F00000B583B003460091ADF80630009BDBB222
:101A000003F00303DAB2BDF8063011461846FFF7BB
:101A10008FFD009B9B0803F00103DAB2BDF806308E
:101A200011461846FFF7C4FD009BDB0803F00303D3
:101A3000DAB2BDF8063011461846FFF7F9FD009BF3
:101A40005B0903F00303DAB2BDF80630114618460D
:101A5000FFF72EFE009BDB09DBB203F00F03DAB2C7
:101A6000BDF8063011461846FFF762FE009BDB0A00
:101A700003F00303DAB2BDF8063011461846FFF74B
:101A8000B7FE009B5B0B03F00103DAB2BDF8063032
:101A900011461846FFF7ECFE009B9B0B03F0010379
:101AA000DAB2BDF8063011461846FFF721FF009B59
:101AB000DB0B03F00103DAB2BDF80630114618461D
:101AC000FFF756FF00BF03B05DF804FB0000000005
:101AD00000B585B00346ADF80630BDF806301B09E9
:101AE0009BB28DF80F30BDF80630DBB203F00F0368
:101AF0008DF80E309DF80F30184600F019FE029058
:101B0000029B002B05D09DF80E3001229A40029BCB
:101B10009A6100BF05B05DF804FB00BF0000000043
:101B200082B00190024B01221A7000BF02B07047D0
:101B30005108002400000000000000000000000028
:101B400082B0019000BF02B0704700BF00000000EB
:101B500000B585B031214820FFF74AFF4820FFF744
:101B6000B7FF0023019301230093032302930A2369
:101B70000393204803F0C4FE0A211E4803F0D8FE58
:101B800002211C4803F0E4FE6B461946194803F095
:101B9000F7FE0121174803F003FF0721154803F062
:101BA00017FF0021134803F043FF0121114803F000
:101BB00027FF00210F4803F053FF07210D4803F0D2
:101BC00067FF0D4A00210B4803F0B2FF0B4A0121C9
:101BD000084803F0ADFF0121064803F071FF0548F6
:101BE00003F0C6FF4821034803F082FF00BF05B0A1
:101BF0005DF804FB642E0024211B0008411B000833
:101C000062B600BF00BF7047000000000000000087
:101C100008B5FFF7F5FF00BF1F20FFF7C1FBFFF777
:101C200097FFFFF725FC002005F0C2FD00231846B2
:101C300008BD00BF00000000000000000000000020
:101C400008B5114806F0A4F84FF4FA7200210020FC
:101C500005F066FC0D4806F09BF84FF47A7264219B
:101C6000012005F05DFC0A4806F092F8012004F01E
:101C70001FFC032004F01CFC064806F089F805F060
:101C800007FE00BF08BD00BF109600083896000888
:101C90006096000880960008000000000000000028
:101CA00008B5084806F074F8074806F071F80120F6
:101CB00005F096FE012004F003FD044806F068F8E4
:101CC000F2E700BF9C960008B0960008D096000886
:101CD00008B5054806F05CF80121012005F0C8FAB6
:101CE00005F0D6FD00BF08BDE89600080000000022
:101CF00000B583B000230193074806F049F8019B23
:101D000001330193019B054A9342F8D1044806F040
:101D10003FF800230193F2E704970008FFFF0F004C
:101D200020970008000000000000000000000000F4
:101D300008B5024806F02CF800BF08BD409700081F
:101D4000124B5B6903F40033002B1BD1BFF34F8FA1
:101D500000BFBFF36F8F00BF0C4B0022C3F85022AF
:101D6000BFF34F8F00BFBFF36F8F00BF074B5B699F
:101D7000064A43F400335361BFF34F8F00BFBFF3F4
:101D80006F8F00E000BF00BF704700BF00ED00E0B4
:101D900000BF7047000000000000000000000000CD
:101DA00000BF7047000000000000000000000000BD
:101DB000FEE700BF0000000000000000000000007F
:101DC00000B58DB04FF0FF3301934FF088431A6D8B
:101DD0004FF08841019B13430B654FF088431A6D08
:101DE000019BDB434FF0884113400B654FF0884364
:101DF0001B6D00BF4FF0FF3302934FF088435A6DC5
:101E00004FF08841029B13434B654FF088435A6D56
:101E1000029BDB434FF0884113404B654FF08843F2
:101E20005B6D00BFB94B03934FF088439A6D4FF041
:101E30008841039B13438B654FF088439A6D039B46
:101E4000DB434FF0884113408B654FF088439B6D17
:101E500000BF4FF0FF3304934FF08843DA6D4FF02B
:101E60008841049B1343CB654FF08843DA6D049B94
:101E7000DB434FF088411340CB654FF08843DB6D67
:101E800000BF4FF0FF3305934FF088431A6E4FF0B9
:101E90008841059B13430B664FF088431A6E059BE0
:101EA000DB434FF0884113400B664FF088431B6EB5
:101EB00000BF4FF0FF3306934FF088439A6E4FF008
:101EC0008841069B13438B664FF088439A6E069BAE
:101ED000DB434FF0884113408B664FF088439B6E85
:101EE00000BF4FF0FF3307934FF08843DA6E4FF097
:101EF0008841079B1343CB664FF08843DA6E079BFC
:101F0000DB434FF088411340CB664FF08843DB6ED4
:101F100000BF00238DF827304FF4806308934FF003
:101F20008843D3F880204FF08841089B1343C1F8C1
:101F300080309DF82730002B14D04FF08843D3F821
:101F4000A0204FF08841089B1343C1F8A0304FF008
:101F50008843D3F8C0204FF08841089B1343C1F851
:101F6000C03015E04FF08843D3F8A020089BDB4336
:101F70004FF088411340C1F8A0304FF08843D3F8A8
:101F8000C020089BDB434FF088411340C1F8C030AC
:101F90004FF08843D3F8803000238DF82F30012391
:101FA0000A934FF08843D3F888204FF088410A9B6A
:101FB0001343C1F888309DF82F30002B14D04FF018
:101FC0008843D3F8A8204FF088410A9B1343C1F8F7
:101FD000A8304FF08843D3F8C8204FF088410A9BBF
:101FE0001343C1F8C83015E04FF08843D3F8A82058
:101FF0000A9BDB434FF088411340C1F8A8304FF0F3
:102000008843D3F8C8200A9BDB434FF08841134034
:10201000C1F8C8304FF08843D3F8883000BF4FF084
:1020200088431B6803F48063002BF8D04FF088438B
:102030001B684FF0884243F48033136000BF4FF0B9
:1020400088431B6803F40033002BF8D04FF088431B
:10205000DB684FF0884243F00303D3602C4B2D4ADA
:102060009A604FF088431B684FF0884243F08073BA
:10207000136000BF4FF088431B6803F00073002B10
:10208000F8D04FF08843DB684FF0884243F4007388
:10209000D3601F4B204A9A624FF088431B684FF071
:1020A000884243F08053136000BF4FF088431B68A1
:1020B00003F00053002BF8D04FF0884300229A60C1
:1020C0004FF08843154A5A624FF088434FF08052D0
:1020D0009A624FF088434FF4C062DA6207F090FAD8
:1020E0004FF088439B684FF0884243F007039360AA
:1020F00000BF4FF088439B6803F03803382BF8D1BA
:1021000000BF00BF0DB05DF804FB00BF00FEFFFF85
:1021100000D8014018200840140002005545440032
:1021200082B00346ADF80630BDF90630002B0CDB5B
:10213000BDF8063003F01F020549BDF906305B0902
:10214000012000FA02F241F8232000BF02B07047DC
:1021500000E100E0000000000000000000000000BE
:1021600082B003460091ADF80630BDF90630002B71
:102170000ADB009BDAB20C49BDF906301201D2B27B
:102180000B4483F800230BE0009BDAB20749BDF84B
:10219000063003F00F03043B1201D2B20B441A764F
:1021A00000BF02B0704700BF00E100E000ED00E0BA
:1021B00000B583B00346ADF80630BDF906301846C9
:1021C000FFF7AEFF00BF03B05DF804FB00000000A6
:1021D00000B583B003460091ADF80630BDF9063076
:1021E00000991846FFF7BCFF00BF03B05DF804FB81
:1021F00082B00190019B1B68032B07D9019B1B68D0
:10220000072B0CD9019B1B680B2B08D8019B1A6963
:10221000019B9B683D2101FA02F29A6008E0019B54
:102220001A69019B9B683D2101FA02F2DA6000BF46
:1022300000BF02B0704700BF0000000000000000B7
:1022400000B583B00190019BDB681A68019BDB68D5
:1022500022F01F021A600198FFF7CAFF00BF03B007
:102260005DF804FB0000000000000000000000001A
:1022700000B585B00190019B1B68032B07D9019B1A
:102280001B68072B0ED9019B1B680B2B0AD8019BDF
:102290009B681A68019B1B6922FA03F303F03D0354
:1022A000039309E0019B9B685A68019B1B6922FA12
:1022B00003F303F03D030393039B9A08019BDB6840
:1022C0001B685B081340002B33D0019B1B68032B5A
:1022D00007D9019B1B68072B0CD9019B1B680B2B93
:1022E00008D8019B1A69019B9B68039901FA02F2C5
:1022F0009A6007E0019B1A69019B9B68039901FAA8
:1023000002F2DA60019B1B680C4ADB0013445B6835
:10231000002B0ED0019B1B68084ADB0013445A684F
:10232000019B1B680549DB000B449B680399184619
:10233000904700BF05B05DF804FB00BF54080024BF
:1023400008B50248FFF794FF00BF08BD509700088A
:1023500008B50248FFF78CFF00BF08BD689700086A
:1023600008B50248FFF784FF00BF08BD809700084A
:1023700008B50248FFF77CFF00BF08BD989700082A
:1023800008B50248FFF774FF00BF08BDB09700080A
:1023900008B50248FFF76CFF00BF08BDC8970008EA
:1023A00008B50248FFF764FF00BF08BDE0970008CA
:1023B00008B50248FFF75CFF00BF08BDF8970008AA
:1023C00008B50248FFF754FF00BF08BD1098000889
:1023D00008B50248FFF74CFF00BF08BD2898000869
:1023E00008B50248FFF744FF00BF08BD4098000849
:1023F00008B50248FFF73CFF00BF08BD5898000829
:1024000008B50248FFF734FF00BF08BD7098000808
:1024100008B50248FFF72CFF00BF08BD88980008E8
:1024200008B50248FFF724FF00BF08BDA0980008C8
:1024300008B50248FFF71CFF00BF08BDB8980008A8
:1024400000B591B00390029101920093039B102B71
:1024500004D100230F930F230E9319E0039B112B3C
:1024600004D100230F9307230E9311E0039B122B3B
:1024700004D108230F930F230E9309E0039B0F2B26
:1024800004D8039B0F93039B0E9301E0002323E1E9
:102490000F9B0D931AE101220D9B02FA03F30C939B
:1024A0008F4B1A680C9B1340002B40F00C810D9A47
:1024B00013465B001344DB008A4A13440B93884A9B
:1024C0000D9BDB001344019A5A60854A0D9BDB008B
:1024D0001344009A9A60824B1A680C9B1343804AFB
:1024E00013600C9BDBB2002B44D001238DF82B3002
:1024F0009DF82B308DF82A304FF4803309934FF03C
:1025000088439A6F4FF08841099B13438B679DF86E
:102510002A30002B14D04FF08843D3F898204FF086
:102520008841099B1343C1F898304FF08843D3F892
:10253000B8204FF08841099B1343C1F8B83015E02B
:102540004FF08843D3F89820099BDB434FF0884134
:102550001340C1F898304FF08843D3F8B820099B56
:10256000DB434FF088411340C1F8B8304FF0884347
:102570009B6F00BF0C9B03F47F43002B44D00123CF
:102580008DF823309DF823308DF822304FF48033BE
:1025900007934FF088431A6F4FF08841079B13430E
:1025A0000B679DF82230002B14D04FF08843D3F8EE
:1025B00090204FF08841079B1343C1F890304FF0B3
:1025C0008843D3F8B0204FF08841079B1343C1F8EC
:1025D000B03015E04FF08843D3F89020079BDB43E1
:1025E0004FF088411340C1F890304FF08843D3F842
:1025F000B020079BDB434FF088411340C1F8B03057
:102600004FF088431B6F00BF354B1B68002B44D035
:1026100001238DF81B309DF81B308DF81A304FF4D4
:10262000003305934FF088439A6F4FF08841059B24
:1026300013438B679DF81A30002B14D04FF088435A
:10264000D3F898204FF08841059B1343C1F8983088
:102650004FF08843D3F8B8204FF08841059B1343CF
:10266000C1F8B83015E04FF08843D3F89820059BA7
:10267000DB434FF088411340C1F898304FF0884356
:10268000D3F8B820059BDB434FF088411340C1F8D5
:10269000B8304FF088439B6F00BF0B9BB3F91430E9
:1026A00002991846FFF794FD0B9BB3F914301846B6
:1026B000FFF77EFD0B98FFF7C3FD0B9BDB68002245
:1026C0001A600B9B08E00D9B01330D930D9A0E9B36
:1026D0009A427FF6E0AE0023184611B05DF804FB85
:1026E000540800245097000800000000000000007B
:1026F00008B500F005F800BF08BD00BF00000000ED
:1027000082B040F2FF1301934FF088439A6F4FF06D
:102710008841019B13438B674FF088439B6F00BF39
:1027200002B0704700000000000000000000000040
:1027300082B003468DF807309DF80730082B28D863
:1027400001A252F823F000BF6D270008732700088C
:10275000772700087B2700087F27000883270008C9
:10276000872700088B2700088F2700084FF0904329
:1027700010E00A4B0EE00A4B0CE00A4B0AE00A4B51
:1027800008E00A4B06E00A4B04E00A4B02E00A4B61
:1027900000E00023184602B0704700BF0004004864
:1027A00000080048000C00480010004800140048D1
:1027B00000180048001C00480020004800000000ED
:1027C00082B00346ADF80630BDF90630002B0CDBB5
:1027D000BDF8063003F01F020549BDF906305B095C
:1027E000012000FA02F241F8232000BF02B0704736
:1027F00000E100E000000000000000000000000018
:1028000082B003460091ADF80630BDF90630002BCA
:102810000ADB009BDAB20C49BDF906301201D2B2D4
:102820000B4483F800230BE0009BDAB20749BDF8A4
:10283000063003F00F03043B1201D2B20B441A76A8
:1028400000BF02B0704700BF00E100E000ED00E013
:1028500000B583B00346ADF80630BDF90630184622
:10286000FFF7AEFF00BF03B05DF804FB00000000FF
:1028700000B583B003460091ADF80630BDF90630CF
:1028800000991846FFF7BCFF00BF03B05DF804FBDA
:1028900082B001900091019BDB68009A9A6000BFB2
:1028A00002B07047000000000000000000000000BF
:1028B00082B001900091019BDB68009ADA6000BF52
:1028C00002B070470000000000000000000000009F
:1028D00082B001900091019BDB68009A5A6000BFB2
:1028E00002B070470000000000000000000000007F
:1028F00082B001900091019BDB68009A1A6000BFD2
:1029000002B070470000000000000000000000005E
:1029100082B00190019B1B68032B07D9019B1B68A8
:10292000072B0CD9019B1B680B2B08D8019B1A693C
:10293000019B9B683D2101FA02F29A6008E0019B2D
:102940001A69019B9B683D2101FA02F2DA6000BF1F
:1029500000BF02B0704700BF000000000000000090
:1029600082B00190019BDB681A68019BDB6842F032
:1029700001021A6000BF02B0704700BF00000000F3
:1029800000B583B00190019BDB681A68019BDB688E
:1029900022F01F021A600198FFF7BAFF00BF03B0D0
:1029A0005DF804FB000000000000000000000000D3
:1029B00082B001900091019BDB685969019BDB6843
:1029C000009A0A435A6100BF02B07047000000003D
:1029D00082B001900091019B5B68009A1A6000BF71
:1029E00002B070470000000000000000000000007E
:1029F00082B003468DF807309DF80730093B062B5F
:102A00001ED801A252F823F0252A0008292A00081E
:102A10002D2A0008312A0008352A0008392A000822
:102A20003D2A00080C230DE010230BE0142309E0DD
:102A3000182307E0202305E0302303E0402301E0D2
:102A40009DF80730184602B0704700BF0000000034
:102A500000B585B001900091019B1B689B0F012B75
:102A600009D1009B01221A71019B1B6823F060426F
:102A7000009B9A6007E0009B00221A71019B1B6873
:102A80009A0C009B9A60019B04331B681B0CDBB201
:102A900003F00F03DBB21846FFF7AAFF03468DF8D9
:102AA0000D30009B9DF80D201A73019B04331B68A9
:102AB0005B0D03F00103002B03D1009B00229A70F1
:102AC00002E0009B01229A70019B04331B689BB2B9
:102AD000DBB29AB2009B1A809DF80D3003F003031D
:102AE000DBB2002B05D19DF80D309B088DF80F301F
:102AF00006E09DF80D309B08DBB201338DF80F30F6
:102B000000238DF80E3011E09DF80E3002339B004B
:102B1000019A13449DF80E201968009B043243F873
:102B200022109DF80E3001338DF80E309DF80E20E6
:102B30009DF80F309A42E7D39DF80F30184605B044
:102B40005DF804FB00000000000000000000000031
:102B500010B5ACB01590149116AB50220021184658
:102B600005F06EF8159B2B93149B03F02003002BAC
:102B70001ED02B9BD3F85039002B13D016AB19461F
:102B80000D48FFF765FF2B9BD3F850490B23129399
:102B9000684618AB48221946FDF772FD16AB0CCB00
:102BA0002B98A0472B9BD3F844391846FFF7D8FE43
:102BB00000BF2CB010BD00BFD808002400000000EA
:102BC00010B5ACB01590149116AB502200211846E8
:102BD00005F036F8159B2B93149B03F02003002B74
:102BE0001ED02B9BD3F85039002B13D016AB1946AF
:102BF0000D48FFF72DFF2B9BD3F850490C23129360
:102C0000684618AB48221946FDF73AFD16AB0CCBC7
:102C10002B98A0472B9BD3F848391846FFF7A0FE06
:102C200000BF2CB010BD00BFE80800240000000069
:102C300010B586B001900B468DF803309DF8033037
:102C4000002B00F00D81019B1B680022C3F8C823F4
:102C5000019B1B684FF0FF32C3F8CC23019B1B681C
:102C6000D3F8D023019B1B6842F04002C3F8D02365
:102C7000019BD3F840395868019BD3F84039196952
:102C8000019B914AFFF7DCFB0246019BC3F84429F4
:102C9000019BD3F840399868019BD3F840391969F2
:102CA000019B8A4AFFF7CCFB0246019BC3F84829E7
:102CB000019BD3F840391868019BD3F84039196952
:102CC00000230022FFF7BCFB0246019BC3F84C29FE
:102CD000019BD3F84449019802F0D2FA0346194601
:102CE0002046FFF775FE019BD3F84849019802F092
:102CF000EFFA034619462046FFF76AFE019BD3F818
:102D00004C49019802F094FA034619462046FFF711
:102D10005FFE019BD3F84429019B1B6803F52073D8
:102D200019461046FFF7B4FD019BD3F84829019BD3
:102D30001B6803F5407319461046FFF7A9FD019B78
:102D4000D3F84C29019B1B6803F500731946104604
:102D5000FFF79EFD019BD3F84039DB681B0443F06D
:102D600010030593019BD3F84039DB681B0443F043
:102D700050030493059B43F4A0430593049B43F441
:102D8000A0430493059B43F4C0630593049B43F461
:102D9000C0630493059B43F400130593049B43F421
:102DA00000130493019BD3F8443905991846FFF7A3
:102DB0009FFD019BD3F8483905991846FFF798FD08
:102DC000019BD3F84C3904991846FFF791FD019BFC
:102DD000D3F8443904211846FFF77AFD019BD3F854
:102DE000483904211846FFF773FD019BD3F84C398D
:102DF00004211846FFF76CFD019BD3F84439344A8F
:102E000011461846FFF754FD019BD3F84839314A63
:102E100011461846FFF74CFD07230393019BD3F897
:102E2000443903991846FFF7C3FD019BD3F848398D
:102E300003991846FFF7BCFD019BD3F84C39039961
:102E40001846FFF7B5FD019BD3F844391846FFF744
:102E500087FD019BD3F848391846FFF781FD2FE025
:102E6000019B1B680022C3F8C823019B1B68D3F891
:102E7000D023019B1B6822F04002C3F8D023019BA2
:102E8000D3F84C39002B05D0019BD3F84C391846A8
:102E9000FFF776FD019BD3F84439002B05D0019B49
:102EA000D3F844391846FFF76BFD019BD3F8483936
:102EB000002B05D0019BD3F848391846FFF760FD79
:102EC00000BF06B010BD00BF512B0008C12B000889
:102ED000D8080024E80800240000000000000000DA
:102EE00082B001900B468DF803309DF80330002B23
:102EF0001BD0019B1B689A69019B1B6842F08002F2
:102F00009A61019B1B681A69019B1B6842F01002C1
:102F10001A619DF80330012B07D1019B1B689A6948
:102F2000019B1B6842F020029A6100BF02B070470B
:102F300082B001900B468DF803309DF80330002BD2
:102F400008D0019B1B689A69019B1B6842F4807240
:102F50009A6107E0019B1B689A69019B1B6822F438
:102F600080729A6100BF02B0704700BF000000008D
:102F700082B001900091019B00221A84019B0022E3
:102F800083F82220019B002283F82320019B00224A
:102F900083F82420019B002283F82620019B0A222B
:102FA00083F82720019B032283F82820019B03221A
:102FB00083F82920019B002283F82A20019B00220C
:102FC00083F82B20019B002283F82C20019B5B7F40
:102FD00083F00103DBB2002B52D0019B5B689F4A58
:102FE00093421AD1019B5968009A13465B0013441F
:102FF0009B00B1FBF3F39BB2013B9AB2019B1A8495
:10300000019B012283F82420019B072283F82220C0
:10301000019B022283F82320C6E2019B5B68904A51
:10302000934213D0019B5B688E4A93420ED0019B62
:103030005B688D4A934209D0019B5B688B4A93423F
:1030400004D0019B5B688A4A934217D1019B5A685E
:10305000009BDB00B2FBF3F39BB2013B9AB2019BF6
:103060001A84019B012283F82420019B042283F807
:103070002220019B012283F8232095E2002394E281
:10308000019B5B687A4A934240F0FC80019B0022DE
:103090001A84019B032283F82420019B1C2283F8BD
:1030A0002220019B092283F82320009B6C4A934233
:1030B00000F0AE80009B6A4A934200F2CC80009BF5
:1030C0006C4A934200F08380009B6A4A934200F26C
:1030D000C280009B684A934255D0009B664A934247
:1030E00000F2B980009B654A934204D0009B644A79
:1030F000934224D0AFE0019B002283F82A20019B59
:10310000002283F82B20019B5968009A13469B00EC
:1031100013445B00B1FBF3F3DBB2013BDAB2019B7A
:1031200083F82620019B012283F82920019B052298
:1031300083F82720019B022283F8282034E2019B98
:10314000012283F82A20019B0C2283F82B20019B6B
:103150005968009A13469B0013445B00B1FBF3F3DC
:10316000DBB2013BDAB2019B83F82620019B0122EE
:1031700083F82920019B052283F82720019B022246
:1031800083F8282010E2019B012283F82A20019B6A
:10319000072283F82B20019B5968009A13469B0055
:1031A00013445B00B1FBF3F3DBB2013BDAB2019BEA
:1031B00083F82620019B012283F82920019B052208
:1031C00083F82720019B022283F82820ECE1019B51
:1031D000012283F82A20019B062283F82B20019BE1
:1031E0005A68009BDB00B2FBF3F3DBB2013BDAB2BF
:1031F000019B83F82620019B012283F82920019B53
:10320000042283F82720019B012283F82820CBE1A8
:10321000019B012283F82A20019B042283F82B20A2
:10322000019B5968009A13469B001344B1FBF3F3CA
:10323000DBB2013BDAB2019B83F82620019B01221D
:1032400083F82920019B022283F82720019B00227A
:1032500083F82820A8E10023A7E100BF001BB700E6
:1032600000127A000024F40000366E010048E801E4
:10327000005A6202404B4C0000093D0040420F00E2
:1032800080841E00019B5B68AB4A934240F0128130
:10329000019B01221A84019B032283F82420019BB5
:1032A0001C2283F82220019B092283F82320009B03
:1032B000A24A934200F0D880009BA04A934200F2B9
:1032C000F780009B9E4A934200F0AD80009B9C4A91
:1032D000934200F2ED80009B9A4A93427FD0009B7C
:1032E000984A934200F2E480009B974A934255D05B
:1032F000009B954A934200F2DB80009B934A9342E5
:1033000004D0009B924A934224D0D1E0019B00223A
:1033100083F82A20019B002283F82B20019B596807
:10332000009A13469B0013445B00B1FBF3F3DBB23E
:10333000013BDAB2019B83F82620019B012283F82E
:103340002920019B052283F82720019B022283F874
:10335000282029E1019B002283F82A20019B0022DA
:1033600083F82B20019B5968009A13469B00134455
:103370005B00B1FBF3F3DBB2013BDAB2019B83F8F4
:103380002620019B022283F82920019B052283F835
:103390002720019B022283F8282005E1019B0122BE
:1033A00083F82A20019B142283F82B20019B5A6862
:1033B000009BDB00B2FBF3F3DBB2013BDAB2019B13
:1033C00083F82620019B022283F82920019B0422F6
:1033D00083F82720019B012283F82820E4E0019B49
:1033E000012283F82A20019B0C2283F82B20019BC9
:1033F0005968009A13469B0013445B00B1FBF3F33A
:10340000DBB2013BDAB2019B83F82620019B02224A
:1034100083F82920019B052283F82720019B0222A3
:1034200083F82820C0E0019B012283F82A20019B19
:103430000A2283F82B20019B5A68009BDB00B2FB19
:10344000F3F3DBB2013BDAB2019B83F82620019B48
:10345000022283F82920019B042283F82720019B64
:10346000012283F828209FE0019B012283F82A2073
:10347000019B072283F82B20019B5968009A134671
:103480009B0013445B00B1FBF3F3DBB2013BDAB208
:10349000019B83F82620019B022283F82920019BAF
:1034A000052283F82720019B022283F828207BE055
:1034B00000237AE0019B5B68264A934272D1019B0C
:1034C00004221A84019B022283F82420019B0D22EE
:1034D00083F82220019B042283F82320009B1A4AB0
:1034E000934204D0009B164A934235D058E0019B8A
:1034F000002283F82A20019B002283F82B20019BC5
:103500005968009A13469B0013445B00B1FBF3F328
:10351000DBB2013BDAB2019B83F82620019B022239
:1035200083F82920019B052283F82720019B022292
:1035300083F8282038E000BF00B4C40400127A00E9
:10354000404B4C0000093D00A025260040420F00E2
:1035500080841E0000E1F505019B012283F82A20EA
:10356000019B0C2283F82B20019B5968009A13467B
:103570009B0013445B00B1FBF3F3DBB2013BDAB217
:10358000019B83F82620019B022283F82920019BBE
:10359000052283F82720019B022283F8282003E0DC
:1035A000002302E0002300E00123184602B0704728
:1035B00084B001900B468DF8033000238DF80F3056
:1035C0009DF80330083B382B00F2968001A252F898
:1035D00023F000BFB9360008F9360008F9360008B4
:1035E000F9360008C1360008F9360008F936000837
:1035F000F9360008C9360008F9360008F93600081F
:10360000F9360008D1360008F9360008F936000806
:10361000F9360008D9360008F9360008F9360008EE
:10362000F9360008F9360008F9360008F9360008BE
:10363000F9360008E1360008F9360008F9360008C6
:10364000F9360008F9360008F9360008F93600089E
:10365000F9360008F9360008F9360008F93600088E
:10366000F9360008F9360008F9360008F93600087E
:10367000F9360008E9360008F9360008F93600087E
:10368000F9360008F9360008F9360008F93600085E
:10369000F9360008F9360008F9360008F93600084E
:1036A000F9360008F9360008F9360008F93600083E
:1036B000F9360008F136000800238DF80F301CE0C1
:1036C00001238DF80F3018E002238DF80F3014E03D
:1036D00003238DF80F3010E004238DF80F300CE039
:1036E00005238DF80F3008E006238DF80F3004E035
:1036F00007238DF80F3000E000BF019B1B68D3F853
:10370000BC3023F007019DF80F3003F00702019B46
:103710001B680A43C3F8BC20019B1B68D3F8BC306C
:1037200023F070019DF80F301B0103F07002019B24
:103730001B680A43C3F8BC20019B1B68D3F8BC304C
:1037400023F4E0619DF80F301B0203F4E062019B5B
:103750001B680A43C3F8BC20019B1B68D3F8C83020
:1037600023F007019DF80F3003F00702019B1B684F
:103770000A43C3F8C82000BF04B07047000000002F
:1037800000B589B00190019801F042FE0690019BBE
:103790005A69069BD31A0593019B1B68D3F88020B6
:1037A000019B1B6842F03002C3F88020019B1B681C
:1037B000D3F88020019B1B6842F00C02C3F88020E4
:1037C000019B1B68D3F88430984A1A4005994FF63C
:1037D000FC730B40019909681343C1F88430019BC5
:1037E0001B68D3F8843023F47F01019BD3F8303970
:1037F0001B0403F47F02019B1B680A43C3F8842067
:10380000019BD3F830399B00059A13440593019B23
:103810001B68D3F88830854A1A4005994FF6FC7327
:103820000B40019909681343C1F88830019B1B685C
:10383000D3F8883023F47F01019BD3F834391B047B
:1038400003F47F02019B1B680A43C3F88820019B95
:10385000D3F83439DB00059A13440593019B1B68A8
:10386000D3F8A030714A1A4005994FF6FC730B400B
:10387000019909681343C1F8A030019B1B68D3F874
:10388000A03023F4FE01019B93F83A391B0403F4A2
:10389000FE02019B1B680A43C3F8A020019B1B6822
:1038A000D3F8A020019B1B6842F00042C3F8A0207F
:1038B000019B1B68D3F8A020019B1B6822F0FE42ED
:1038C000C3F8A020019B93F82D300833019A92F899
:1038D0003A2902FB03F3059A13440593019B1B68E5
:1038E000D3F8B030514A1A4005994FF6FC730B409B
:1038F000019909681343C1F8B030019B1B68D3F8E4
:10390000B03023F4FE01019B93F83B391B0403F410
:10391000FE02019B1B680A43C3F8B020019B1B6891
:10392000D3F8B020019B1B6842F00042C3F8B020DE
:10393000019B1B68D3F8B020019B1B6822F0FE425C
:10394000C3F8B020019B93F82D300833019A92F808
:103950003B2902FB03F3059A13440593019B1B6863
:10396000D3F8AC30314A1A4005994FF6FC730B403E
:10397000019909681343C1F8AC30019B93F82D30CD
:103980000833019A92F8382902FB03F3059A13448D
:103990000593019B1B68D3F8C030244A1A4005994F
:1039A0004FF6FC730B40019909681343C1F8C0300E
:1039B000019B1B68D3F8C03023F47C11019B93F862
:1039C00039391B0403F47C12019B1B680A43C3F8BA
:1039D000C020019B93F83E39002B24D0019B1B682B
:1039E000D3F8C03023F07C51019B93F83C391B067F
:1039F00003F07C52019B1B680A43C3F8C020019B63
:103A000093F83E39022B04D0019B93F83E39042BE6
:103A100009D1019B1B68D3F8C020019B1B6842F0B1
:103A20008042C3F8C0200023079345E00300FFFF56
:103A30000199079A13465B0013449B000B443433EF
:103A40001B6804930199079A13465B0013449B007B
:103A50000B4430331B681B04049A134404930199EC
:103A6000079A13465B0013449B000B4439331B78C1
:103A7000DB06049A134404930199079A13465B00EA
:103A800013449B000B4438331B789B07049A134460
:103A90000493019B1B68D3F884204FF6FC731340FA
:103AA000069A1A44079B9B0013440393039B049AB2
:103AB0001A60079B01330793019BD3F83039079AAB
:103AC0009A42B5D30023079355E00199079A13460C
:103AD0005B0013449B000B4403F5C6631B6804930F
:103AE0000199079A13465B0013449B000B4403F2B1
:103AF00039631B785B07049A13440493019B1B688A
:103B0000D3F888204FF6FC731340069A1A44079B9B
:103B1000DB0013440393039B049A1A600199079AEC
:103B200013465B0013449B000B4403F234631B6891
:103B300004930199079A13465B0013449B000B44BE
:103B400003F5C7631B789B07049A13440493019BF6
:103B50001B68D3F888204FF6FC731340069A1A446A
:103B6000079BDB00134404330393039B049A1A60FE
:103B7000079B01330793019BD3F83439079A9A4284
:103B8000A3D300BF00BF09B05DF804FB0000000034
:103B900000B583B00190019B5B691846019B9B694E
:103BA0001A46002104F04CF8019B1B689A69019B9E
:103BB0001B6842F003029A6100BF019B1B689B696E
:103BC00003F00103002BF8D0019B93F83F3919460D
:103BD0000198FFF72DF8019B1B7F19460198FFF70D
:103BE0007FF9019B5B7F19460198FFF7A1F9019BC3
:103BF0001B68DB69604A1A40019B1B8C19045F4BF0
:103C00000B40019909681343CB61019B1B68DB6979
:103C100023F47F41019B93F822301B029AB2019B4F
:103C20001B680A43DA61019B1B68DB6923F07F0193
:103C3000019B93F8233003F07F02019B1B680A432A
:103C4000DA61019B1B68DB6923F07E41019B93F8DD
:103C500024305A06019B1B680A43DA61019B5B7F93
:103C6000002B7CD0019B1B68DB6823F4F811019BBF
:103C700093F826301B0403F4F812019B1B680A43D7
:103C8000DA60019B1B68DB6823F4F851019B93F811
:103C900027301B0203F4F852019B1B680A43DA60C9
:103CA000019B1B68DB6823F0F001019B93F828302F
:103CB0001B01DAB2019B1B680A43DA60019B1B6897
:103CC000DB6823F00F01019B93F8293003F00F020A
:103CD000019B1B680A43DA60019B93F82A30002B92
:103CE00025D0019B1B68DA68019B1B6842F4000227
:103CF000DA60019B1B689B6C23F4FE41019B93F8E7
:103D00002B301B0203F4FE42019B1B680A439A649A
:103D1000019B1B689B6C23F07F01019B93F82C3067
:103D200003F07F02019B1B680A439A6417E0019B22
:103D30001B68DA68019B1B6822F40002DA60019BB1
:103D40001B689A6C019B1B6822F4FE429A64019BDB
:103D50001B689A6C019B1B6822F07F029A64019B8E
:103D60009B7F002B0CD0019B1B689A69019B1B68F1
:103D700042F400729A610BE0FFFF00FE0000FF01B9
:103D8000019B1B689A69019B1B6822F400729A616F
:103D9000019B93F82D3019460198FFF709FC019813
:103DA000FFF7EEFC019B1B684FF0FF321A65019B89
:103DB0001B6800225A65019B1B6903F40073002BEA
:103DC0001DD0019B93F83F3983F00103DBB2002B38
:103DD00015D0019B1B685A6D019B1B6842F4007251
:103DE0005A65019B1B689B6D23F40071019B1B7B33
:103DF0005B0203F40072019B1B680A439A65019BF6
:103E00001B6903F40063002B15D0019B1B685A6DDE
:103E1000019B1B6842F400625A65019B1B689B6D05
:103E200023F40061019B1B7BDB0203F40062019B16
:103E30001B680A439A65019B93F83D3983F001039F
:103E4000DBB2002B15D0019B1B685A6D019B1B68D0
:103E500042F400225A65019B1B689B6D23F40021EC
:103E6000019B1B7BDB0403F40022019B1B680A43BC
:103E70009A65019B93F83D3983F00103DBB2002B77
:103E80001CD0019B93F83F3983F00103DBB2002B78
:103E900014D0019B1B685A6D019B1B6842F0010204
:103EA0005A65019B1B689B6D23F00101019B1B7BE5
:103EB00003F00102019B1B680A439A65019B1B6981
:103EC00003F00203002B15D0019B1B685A6D019B68
:103ED0001B6842F002025A65019B1B689B6D23F030
:103EE0000201019B1B7B5B0003F00202019B1B682C
:103EF0000A439A65019B1B6903F00403002B15D04C
:103F0000019B1B685A6D019B1B6842F004025A65B5
:103F1000019B1B689B6D23F00401019B1B7B9B0095
:103F200003F00402019B1B680A439A65019B1B690D
:103F300003F00803002B15D0019B1B685A6D019BF1
:103F40001B6842F008025A65019B1B689B6D23F0B9
:103F50000801019B1B7BDB0003F00802019B1B682F
:103F60000A439A65019B93F83D3983F00103DBB264
:103F7000002B1DD0019B93F83F3983F00103DBB286
:103F8000002B15D0019B1B685A6D019B1B6842F0EA
:103F900010025A65019B1B689B6D23F01001019B69
:103FA0001B7B1B0103F01002019B1B680A439A65EF
:103FB000019B1B6903F02003002B15D0019B1B689C
:103FC0005A6D019B1B6842F020025A65019B1B68D9
:103FD0009B6D23F02001019B1B7B5B0103F0200202
:103FE000019B1B680A439A65019B1B6903F0400310
:103FF000002B15D0019B1B685A6D019B1B6842F07A
:1040000040025A65019B1B689B6D23F04001019B98
:104010001B7B9B0103F04002019B1B680A439A65CE
:10402000019B1B6903F08003002B14D0019B1B68CC
:104030005A6D019B1B6842F080025A65019B1B6808
:104040009B6D23F08001019B1B7BDB01DAB2019B9E
:104050001B680A439A65019B1B6903F00073002BE0
:1040600015D0019B1B685A6D019B1B6842F00072C2
:104070005A65019B1B689B6D23F00071019B1B7BA4
:104080005B0603F00072019B1B680A439A65019B63
:104090001B68596D019B1A68204B0B435365019BAC
:1040A0001B7B002B08D1019B1B68DA6D019B1B68F1
:1040B00042F00102DA6507E0019B1B68DA6D019BA3
:1040C0001B6842F00202DA65019B1B684FF0FF3269
:1040D000C3F89820019B1B684FF0FF32C3F89C2067
:1040E000019B1B689A69019B1B6822F004029A617C
:1040F000019B1B689A69019B1B6822F001029A616F
:1041000000BF019B1B689B6903F00103002BF8D1E2
:1041100000BF00BF03B05DF804FB00BF0000F63D28
:1041200086B00390029101928DF80330029B002B20
:1041300004D1019B002B01D10023A2E09DF80330A4
:10414000012B51D1002305930EE00399059A1346E4
:104150005B0013449B000B4403F5C6631B68002BF4
:1041600006D0059B01330593059B3F2BEDD900E05D
:1041700000BF059B402B01D1002382E00399059AE3
:1041800013465B0013449B000B4403F5C663029A7D
:104190001A600399059A13465B0013449B000B4475
:1041A00003F23463019A1A600399059A13465B007F
:1041B00013449B000B4403F5C7639DF818201A7045
:1041C0000399059A13465B0013449B000B4403F2CA
:1041D00039639DF81C201A70039BD3F834395A1C9C
:1041E000039BC3F834294BE0002305930DE00399AA
:1041F000059A13465B0013449B000B4430331B6845
:10420000002B06D0059B01330593059B7F2BEED930
:1042100000E000BF059B802B01D1002331E0039912
:10422000059A13465B0013449B000B443033029AFB
:104230001A600399059A13465B0013449B000B44D4
:104240003433019A1A600399059A13465B001344AC
:104250009B000B4438339DF818201A700399059A77
:1042600013465B0013449B000B4439339DF81C201C
:104270001A70039BD3F830395A1C039BC3F83029BA
:104280000123184606B0704700000000000000003F
:1042900000B587B00390019200930B468DF80B3068
:1042A000039801F0B5F804909DF80B30022B2CD048
:1042B000022B3DDC002B02D0012B13D038E0039BF6
:1042C0001B68D3F8AC204FF6FC731340049A1A44D1
:1042D000039B93F82D300833019901FB03F313443A
:1042E000059328E0039B1B68D3F8A0204FF6FC73CE
:1042F0001340049A1A44039B93F82D300833019914
:1043000001FB03F31344059315E0039B1B68D3F8EB
:10431000B0204FF6FC731340049A1A44039B93F8A1
:104320002D300833019901FB03F31344059302E098
:104330000023059300BF059B00991846FEF788FBF4
:1043400000BF07B05DF804FB0000000000000000A3
:1043500000B585B00190019B0F229A60019B00225D
:104360001A73019B00221A61019801F061F802465C
:10437000019B5A61019801F093F80246019B9A61F2
:10438000019B00221A77019B00225A77019B002291
:104390009A77019B00221A84019B002283F8222035
:1043A000019B002283F82320019B002283F8242014
:1043B000019B002283F82620019B0A2283F82720F4
:1043C000019B032283F82820019B032283F82920E4
:1043D000019B002283F82A20019B002283F82B20D6
:1043E000019B002283F82C20019B082283F82D20BA
:1043F00000238DF80F3030E09DF80F20019913460F
:104400005B0013449B000B44303300221A609DF87C
:104410000F20019913465B0013449B000B44343377
:1044200000221A609DF80F20019913465B00134487
:104430009B000B44383300221A709DF80F2001991D
:1044400013465B0013449B000B44393300221A705F
:104450009DF80F3001338DF80F309DF90F30002B90
:10446000CADA00238DF80F3034E09DF80F2001994F
:1044700013465B0013449B000B4403F5C663002204
:104480001A609DF80F20019913465B0013449B00AE
:104490000B4403F2346300221A609DF80F20019947
:1044A00013465B0013449B000B4403F5C7630022D3
:1044B0001A709DF80F20019913465B0013449B006E
:1044C0000B4403F2396300221A709DF80F30013358
:1044D0008DF80F309DF80F303F2BC6D9019B00227D
:1044E000C3F83029019B0022C3F83429019B002224
:1044F00083F83829019B002283F83929019B002287
:1045000083F83A29019B002283F83B29019B002272
:1045100083F83C29019B012283F83D29019B00225D
:1045200083F83E29019B002283F83F29019B00224A
:10453000C3F84029019B0022C3F84429019B0022B3
:10454000C3F84829019B0022C3F84C29019B002293
:10455000C3F85029019B0022C3F8542900BF05B0BD
:104560005DF804FB000000000000000000000000F7
:1045700000B583B00190019800F07AFC0246019BDF
:104580001A60019800F0A4FC0246019B5A60019851
:10459000FFF7DEFE00BF03B05DF804FB0000000083
:1045A00084B001900B468DF80330019B1B7B8DF886
:1045B0000F30019B9DF803201A739DF80F301846A9
:1045C00004B0704700000000000000000000000080
:1045D00084B001900091019B1B690393019B009A99
:1045E0001A61039B184604B0704700BF000000002A
:1045F00084B001900B468DF80330019B1B7F8DF832
:104600000F30019B9DF803201A779DF80F30184654
:1046100004B070470000000000000000000000002F
:1046200084B001900B468DF80330019B5B7F8DF8C1
:104630000F30019B9DF803205A779DF80F301846E4
:1046400004B07047000000000000000000000000FF
:1046500000B583B00190009100990198FEF788FCA5
:104660000346184603B05DF804FB00BF00000000DD
:1046700000B587B00590049103928DF80B309DF83A
:104680000B209DF8243001939DF8203000931346B1
:10469000039A04990598FFF743FD0346184607B0AF
:1046A0005DF804FB000000000000000000000000B6
:1046B00082B00190084611461A4603468DF8033031
:1046C0000B468DF8023013468DF80130019B9DF8A2
:1046D000032083F83829019B9DF8022083F83929AB
:1046E000019B9DF8012083F83A29019B9DF8082041
:1046F00083F83B29019B9DF80C2083F83C2900BFDF
:1047000002B0704700000000000000000000000040
:1047100084B001900B468DF80330019B93F83D392E
:104720008DF80F30019B9DF8032083F83D299DF8FB
:104730000F30184604B07047000000000000000071
:1047400084B001900B468DF80330019B93F83E39FD
:104750008DF80F30019B9DF8032083F83E299DF8CA
:104760000F30184604B07047000000000000000041
:1047700084B001900B468DF80330019B93F83F39CC
:104780008DF80F30019B9DF8032083F83F299DF899
:104790000F30184604B07047000000000000000011
:1047A00084B001900091019BD3F850390393019B91
:1047B000009AC3F85029039B184604B0704700BF05
:1047C00084B001900091019BD3F854390393019B6D
:1047D000009AC3F85429039B184604B0704700BFE1
:1047E00000B585B00190019800F07AFB019B1B7B1E
:1047F000002B06D1019800F093FD0346ADF80E3072
:1048000005E0019800F0B4FD0346ADF80E30019BC1
:104810009A68BDF90E3011461846FEF729F8BDF921
:104820000E301846FEF714F8019B93F83F39002B21
:1048300012D0019800F0C4FD0346ADF80E30019B84
:104840009A68BDF90E3011461846FEF711F8BDF909
:104850000E301846FDF7FCFF0198FFF799F900BFED
:1048600005B05DF804FB00BF000000000000000080
:1048700010B5ACB015900B468DF8533016AB5022E6
:104880000021184603F0DCF900238DF8AF30159BAA
:104890001B681B6D03F40073002B25D0159B1B6850
:1048A0009B6D5B0A03F001029DF853309A421BD1C5
:1048B000159BD3F85039002B0ED0159BD3F85049D7
:1048C00001231293684618AB48221946FBF7D8FE1D
:1048D00016AB0CCB1598A047159B1B681A6D159B42
:1048E0001B6842F400721A65159B1B681B6D03F46C
:1048F0000063002B25D0159B1B689B6DDB0A03F022
:1049000001029DF853309A421BD1159BD3F85039C0
:10491000002B0ED0159BD3F8504902231293684602
:1049200018AB48221946FBF7ABFE16AB0CCB15981B
:10493000A047159B1B681A6D159B1B6842F400620B
:104940001A65159B1B681B6D03F40023002B5BD0BD
:10495000159B1B689B6DDB0C03F001029DF8533027
:104960009A4251D1159B93F83D3983F00103DBB294
:10497000002B2DD000238DF8AF3010E0159B1B6865
:10498000D3F898209DF8AF3022FA03F303F0010327
:10499000002B0CD19DF8AF3001338DF8AF30159B53
:1049A00093F838399DF8AF209A42E7D300E000BF72
:1049B0009DF8AF2016AB00211598FFF769FC9DF814
:1049C000AF20159B1B68012101FA02F2C3F8982061
:1049D000159BD3F85039002B0ED0159BD3F85049B6
:1049E00000231293684618AB48221946FBF748FE8D
:1049F00016AB0CCB1598A047159B1B681A6D159B21
:104A00001B6842F400221A65159B1B681B6D03F09E
:104A10000803002B25D0159B1B689B6DDB0803F05A
:104A200001029DF853309A421BD1159BD3F850399F
:104A3000002B0ED0159BD3F85049062312936846DD
:104A400018AB48221946FBF71BFE16AB0CCB15988A
:104A5000A047159B1B681A6D159B1B6842F0080246
:104A60001A65159B1B681B6D03F00403002B25D0F2
:104A7000159B1B689B6D9B0803F001029DF853304A
:104A80009A421BD1159BD3F85039002B0ED0159BA1
:104A9000D3F8504905231293684618AB48221946AB
:104AA000FBF7EEFD16AB0CCB1598A047159B1B68CA
:104AB0001A6D159B1B6842F004021A65159B1B6852
:104AC0001B6D03F00203002B25D0159B1B689B6D0B
:104AD0005B0803F001029DF853309A421BD1159BED
:104AE000D3F85039002B0ED0159BD3F8504904232E
:104AF0001293684618AB48221946FBF7C1FD16AB66
:104B00000CCB1598A047159B1B681A6D159B1B684D
:104B100042F002021A65159B1B681B6D03F001032E
:104B2000002B54D0159B93F83F3983F00103DBB27F
:104B3000002B4CD0159B1B689B6D03F001029DF868
:104B400053309A4243D1159B93F83D3983F00103CA
:104B5000DBB2002B1FD0159B1B68D3F8A4301B0AB7
:104B6000DBB203F03F038DF8AF309DF8AF2016ABFA
:104B700001211598FFF78CFB159B1B68D3F8A83013
:104B800023F03F019DF8AF3003F03F02159B1B68F7
:104B90000A43C3F8A820159BD3F85039002B0ED038
:104BA000159BD3F8504903231293684618AB48224B
:104BB0001946FBF765FD16AB0CCB1598A047159B66
:104BC0001B681A6D159B1B6842F001021A65159B44
:104BD0001B681B6D03F08003002B25D0159B1B6801
:104BE0009B6DDB0903F001029DF853309A421BD103
:104BF000159BD3F85039002B0ED0159BD3F8504994
:104C00000A231293684618AB48221946FBF738FD71
:104C100016AB0CCB1598A047159B1B681A6D159BFE
:104C20001B6842F080021A65159B1B681B6D03F020
:104C30004003002B25D0159B1B689B6D9B0903F03F
:104C400001029DF853309A421BD1159BD3F850397D
:104C5000002B0ED0159BD3F85049092312936846B8
:104C600018AB48221946FBF70BFD16AB0CCB159879
:104C7000A047159B1B681A6D159B1B6842F04002EC
:104C80001A65159B1B681B6D03F02003002B25D0B4
:104C9000159B1B689B6D5B0903F001029DF8533067
:104CA0009A421BD1159BD3F85039002B0ED0159B7F
:104CB000D3F8504908231293684618AB4822194686
:104CC000FBF7DEFC16AB0CCB1598A047159B1B68B9
:104CD0001A6D159B1B6842F020021A65159B1B6814
:104CE0001B6D03F01003002B55D0159B93F83F3933
:104CF00083F00103DBB2002B4DD0159B1B689B6D2D
:104D00001B0903F001029DF853309A4243D1159BD1
:104D100093F83D3983F00103DBB2002B1FD0159BC4
:104D20001B68D3F8B4301B0ADBB203F03F038DF8E5
:104D3000AF309DF8AF2016AB02211598FFF7A8FA07
:104D4000159B1B68D3F8B83023F03F019DF8AF30B6
:104D500003F03F02159B1B680A43C3F8B820159B5C
:104D6000D3F85039002B0ED0159BD3F850490723A8
:104D70001293684618AB48221946FBF781FC16AB24
:104D80000CCB1598A047159B1B681A6D159B1B68CB
:104D900042F010021A65159B1B681A6D144B1340E4
:104DA000002B21D0159B1B685B6C2A93159BD3F8B5
:104DB0005439002B05D0159BD3F854392A991598EE
:104DC0009847159B1B681B6D03F00073002B07D0E1
:104DD000159B1B689A69159B1B6822F001029A615A
:104DE000159B1B68024A1A6500BF2CB010BD00BF9E
:104DF0000000F63D00000000000000000000000080
:104E000010B5AAB0159016AB50220021184602F03A
:104E100017FF159B1B68D3F8CC3303F04003002B1E
:104E20001DD0159BD3F85039002B0ED0159BD3F80D
:104E300050490D231293684618AB48221946FBF7D8
:104E40001FFC16AB0CCB1598A047159B1B68D3F81D
:104E5000CC23159B1B6842F04002C3F8CC2300BF53
:104E60002AB010BD0000000000000000000000009B
:104E700084B00190019B0D4A934202D10C4B0393E5
:104E80000FE0019B0B4A934202D10B4B039308E0C6
:104E9000019B0A4A934202D1094B039301E0094B5B
:104EA0000393039B184604B0704700BFF808002422
:104EB00000A000425012002400A80042A81B0024B9
:104EC00000B0004200B800420000000000000000F6
:104ED00082B00190014B184602B07047005A62023E
:104EE0008CB00190CD4B1B78002B40F068810123E2
:104EF0008DF80F309DF80F308DF80E304FF4807321
:104F000002934FF08843D3F88C204FF08841029BE6
:104F10001343C1F88C309DF80E30002B14D04FF0A5
:104F20008843D3F8AC204FF08841029B1343C1F86B
:104F3000AC304FF08843D3F8CC204FF08841029B2F
:104F40001343C1F8CC3015E04FF08843D3F8AC20C0
:104F5000029BDB434FF088411340C1F8AC304FF067
:104F60008843D3F8CC20029BDB434FF088411340A9
:104F7000C1F8CC304FF08843D3F88C3000BF012308
:104F80008DF817309DF817308DF816304FF4806388
:104F900004934FF08843D3F88C204FF08841049B52
:104FA0001343C1F88C309DF81630002B14D04FF00D
:104FB0008843D3F8AC204FF08841049B1343C1F8D9
:104FC000AC304FF08843D3F8CC204FF08841049B9D
:104FD0001343C1F8CC3015E04FF08843D3F8AC2030
:104FE000049BDB434FF088411340C1F8AC304FF0D5
:104FF0008843D3F8CC20049BDB434FF08841134017
:10500000C1F8CC304FF08843D3F88C3000BF012377
:105010008DF81F309DF81F308DF81E304FF48053EF
:1050200006934FF08843D3F88C204FF08841069BBD
:105030001343C1F88C309DF81E30002B14D04FF074
:105040008843D3F8AC204FF08841069B1343C1F846
:10505000AC304FF08843D3F8CC204FF08841069B0A
:105060001343C1F8CC3015E04FF08843D3F8AC209F
:10507000069BDB434FF088411340C1F8AC304FF042
:105080008843D3F8CC20069BDB434FF08841134084
:10509000C1F8CC304FF08843D3F88C3000BF0123E7
:1050A0008DF827309DF827308DF826304FF4804357
:1050B00008934FF08843D3F88C204FF08841089B29
:1050C0001343C1F88C309DF82630002B14D04FF0DC
:1050D0008843D3F8AC204FF08841089B1343C1F8B4
:1050E000AC304FF08843D3F8CC204FF08841089B78
:1050F0001343C1F8CC3015E04FF08843D3F8AC200F
:10510000089BDB434FF088411340C1F8AC304FF0AF
:105110008843D3F8CC20089BDB434FF088411340F1
:10512000C1F8CC304FF08843D3F88C3000BF012356
:105130008DF82F309DF82F308DF82E304FF48033BE
:105140000A934FF08843D3F88C204FF088410A9B94
:105150001343C1F88C309DF82E30002B14D04FF043
:105160008843D3F8AC204FF088410A9B1343C1F821
:10517000AC304FF08843D3F8CC204FF088410A9BE5
:105180001343C1F8CC3015E04FF08843D3F8AC207E
:105190000A9BDB434FF088411340C1F8AC304FF01D
:1051A0008843D3F8CC200A9BDB434FF0884113405F
:1051B000C1F8CC304FF08843D3F88C3000BF019B4E
:1051C000174A934207D1154B1B7843F00103DAB21B
:1051D000124B1A701EE0019B124A934207D10F4BEB
:1051E0001B7843F00203DAB20C4B1A7012E0019BF9
:1051F0000D4A934207D1094B1B7843F00403DAB2FE
:10520000064B1A7006E0054B1B7843F00803DAB230
:10521000024B1A7000BF0CB0704700BF582E00241C
:10522000F808002450120024A81B002400000000ED
:1052300084B00190019B0D4A934202D182230393D3
:105240000FE0019B0A4A934202D18623039308E0B0
:10525000019B084A934202D18A23039301E08E23E3
:105260000393039B184604B0704700BFF80800245E
:1052700050120024A81B00240000000000000000C1
:1052800084B00190019B0D4A934202D18423039381
:105290000FE0019B0A4A934202D18823039308E05E
:1052A000019B084A934202D18C23039301E090238F
:1052B0000393039B184604B0704700BFF80800240E
:1052C00050120024A81B0024000000000000000071
:1052D00084B00190019B0D4A934202D18523039330
:1052E0000FE0019B0A4A934202D18923039308E00D
:1052F000019B084A934202D18D23039301E091233D
:105300000393039B184604B0704700BFF8080024BD
:1053100050120024A81B0024000000000000000020
:1053200084B00190019B0F4A934203D15423ADF8FE
:105330000E3012E0019B0C4A934203D15723ADF883
:105340000E300AE0019B094A934203D15A23ADF87B
:105350000E3002E05D23ADF80E30BDF90E30184678
:1053600004B07047F808002450120024A81B002441
:1053700084B00190019B0F4A934203D15523ADF8AD
:105380000E3012E0019B0C4A934203D15823ADF832
:105390000E300AE0019B094A934203D15B23ADF82A
:1053A0000E3002E05E23ADF80E30BDF90E30184627
:1053B00004B07047F808002450120024A81B0024F1
:1053C00084B00190019B0F4A934203D15623ADF85C
:1053D0000E3012E0019B0C4A934203D15923ADF8E1
:1053E0000E300AE0019B094A934203D15C23ADF8D9
:1053F0000E3002E05F23ADF80E30BDF90E301846D6
:1054000004B07047F808002450120024A81B0024A0
:1054100082B00190014B184602B0704700C00042B4
:1054200082B001904FF48043184602B0704700BF2D
:1054300000B585B001900198FFF7EAFF039001984D
:10544000FFF7EEFF03469B080293019B0F4A93422E
:1054500001D1039B16E0019B0D4A934203D1039AAD
:10546000029B13440EE0019B0A4A934204D1029B23
:105470005A00039B134405E0029A13465B001A444A
:10548000039B1344184605B05DF804FBF80800249C
:1054900050120024A81B002400000000000000009F
:1054A00000B583B001900198FFF7BAFF03469B084F
:1054B000184603B05DF804FB000000000000000087
:1054C00008B500210248FFF7D3F900BF08BD00BFAF
:1054D000F8080024000000000000000000000000A8
:1054E00008B501210248FFF7C3F900BF08BD00BF9E
:1054F000F808002400000000000000000000000088
:1055000008B50248FFF77CFC00BF08BDF80800247E
:1055100008B500210248FFF7ABF900BF08BD00BF86
:1055200050120024000000000000000000000000F5
:1055300008B501210248FFF79BF900BF08BD00BF75
:1055400050120024000000000000000000000000D5
:1055500008B50248FFF754FC00BF08BD50120024F4
:1055600008B500210248FFF783F900BF08BD00BF5E
:10557000A81B002400000000000000000000000044
:1055800008B501210248FFF773F900BF08BD00BF4D
:10559000A81B002400000000000000000000000024
:1055A00008B50248FFF72CFC00BF08BDA81B00246B
:1055B00008B500210248FFF75BF900BF08BD00BF36
:1055C0000025002400000000000000000000000092
:1055D00008B501210248FFF74BF900BF08BD00BF25
:1055E0000025002400000000000000000000000072
:1055F00008B50248FFF704FC00BF08BD00250024E1
:1056000082B00346ADF80630BDF90630002B0CDB46
:10561000BDF8063003F01F020549BDF906305B09ED
:10562000012000FA02F241F8232000BF02B07047C7
:1056300000E100E0000000000000000000000000A9
:1056400082B003460091ADF80630BDF90630002B5C
:105650000ADB009BDAB20C49BDF906301201D2B266
:105660000B4483F800230BE0009BDAB20749BDF836
:10567000063003F00F03043B1201D2B20B441A763A
:1056800000BF02B0704700BF00E100E000ED00E0A5
:1056900000B585B00346ADF80630BDF806301B09ED
:1056A0009BB28DF80F30BDF80630DBB203F00F036C
:1056B0008DF80E309DF80F301846FDF739F802903E
:1056C000029B002B05D09DF80E3001229A40029BD0
:1056D0009A6100BF05B05DF804FB00BF0000000048
:1056E00000B583B00346ADF80630BDF90630184664
:1056F000FFF786FF00BF03B05DF804FB0000000069
:1057000000B583B003460091ADF80630BDF9063010
:1057100000991846FFF794FF00BF03B05DF804FB43
:1057200082B001900091019BDB68009A9A6000BFF3
:1057300002B0704700000000000000000000000000
:1057400082B00190019B1B68032B07D9019B1B684A
:10575000072B0CD9019B1B680B2B08D8019B1A69DE
:10576000019B9B683D2101FA02F29A6008E0019BCF
:105770001A69019B9B683D2101FA02F2DA6000BFC1
:1057800000BF02B0704700BF000000000000000032
:1057900082B001900091019B5B68009A1A6000BF83
:1057A00002B0704700000000000000000000000090
:1057B00084B00190019B00221A61019B00225A6172
:1057C000019B00229A60019B0022DA60019B00226B
:1057D0001A76019B0F22DA61019B002283F82020B8
:1057E000019B00225A62019B00229A62019B0022C7
:1057F000DA62019B00221A63019B00225A63019B1B
:10580000012283F83820019B002283F83920019B74
:10581000002283F83A20019B002283F83B20019B61
:10582000002283F83C20019B072283F83D20019B46
:10583000002283F83E20019B002283F83F20019B39
:105840000022A3F8402000238DF80F300CE09DF8D3
:105850000F30019A10339B00134400225A609DF8C8
:105860000F3001338DF80F309DF80F30012BEED93A
:1058700000BF00BF04B0704700000000000000003F
:1058800000B585B001900091019B0393009B03F04C
:105890000803002B08D0039B9B6C002B11D0039BAB
:1058A0009B6C039898470CE0009B03F02003002BAF
:1058B00007D0039B5B6C002B03D0039B5B6C0398AE
:1058C0009847039B9B6A1846FFF73AFF039B93F8A0
:1058D0003830012B0AD1039B93F83F30012B05D1BF
:1058E000039BB3F840301846FFF7D2FE039B00221B
:1058F0001A7600BF05B05DF804FB00BF0000000091
:1059000000B583B00190019800F00AFB0246019BAC
:105910001A60019800F034FB0246019B5A6001981E
:10592000FFF746FF00BF03B05DF804FB0000000076
:1059300084B001900091019BDB690393019B009A65
:10594000DA61039B184604B0704700BF00000000F6
:1059500084B001900B468DF80330019B93F8203002
:105960008DF80F30019B9DF8032083F820209DF8CF
:105970000F30184604B0704700000000000000001F
:1059800084B001900091019B5B6A0393019B009A94
:105990005A62039B184604B0704700BF0000000025
:1059A00084B001900B468DF80330019B93F838309A
:1059B0008DF80F30019B9DF8032083F838209DF867
:1059C0000F30184604B070470000000000000000CF
:1059D00084B001900B468DF80330019B93F8393069
:1059E0008DF80F30019B9DF8032083F839209DF836
:1059F0000F30184604B0704700000000000000009F
:105A000084B001900B468DF80330019B93F83A3037
:105A10008DF80F30019B9DF8032083F83A209DF804
:105A20000F30184604B0704700000000000000006E
:105A300084B001900B468DF80330019B93F83B3006
:105A40008DF80F30019B9DF8032083F83B209DF8D3
:105A50000F30184604B0704700000000000000003E
:105A600084B001900B468DF80330019B93F83C30D5
:105A70008DF80F30019B9DF8032083F83C209DF8A2
:105A80000F30184604B0704700000000000000000E
:105A900084B001900B468DF80330019B93F83D30A4
:105AA0008DF80F30019B9DF8032083F83D209DF871
:105AB0000F30184604B070470000000000000000DE
:105AC00084B001900B468DF80330019B93F83F3072
:105AD0008DF80F30019B9DF8032083F83F209DF83F
:105AE0000F30184604B070470000000000000000AE
:105AF00000B585B001900B46ADF80230019BB3F8BC
:105B00004030ADF80E30019BBDF80220A3F84020D4
:105B1000019BB3F840301846FFF7BAFDBDF80E30D0
:105B2000184605B05DF804FB00000000000000000E
:105B300086B003900B4601928DF80B309DF80B3028
:105B4000039A10339B0013445B6805939DF80B3058
:105B5000039A10339B001344019A5A60059B184620
:105B600006B07047000000000000000000000000C8
:105B700000B589B001900023069300230793019894
:105B800000F026FA019B93F82030002B04D0019BF3
:105B900093F82030012B13D1019800F0A1FB0346AC
:105BA000ADF80E30019BDA69BDF90E30114618468A
:105BB000FFF7A6FDBDF90E301846FFF791FD6DE029
:105BC000019B5B6A1868019B5B6AD968019B5F4A0D
:105BD000FCF736FC0246019BDA62019B5B6A58685F
:105BE000019B5B6AD96800230022FCF729FC02466E
:105BF000019B9A62019BDA6A019B1B680C33194670
:105C00001046FFF78DFD019B9A6A019B1B680C33C0
:105C100019461046FFF784FD019800F011FB05902E
:105C2000019B9B6A05991846FFF7B2FD019800F0A9
:105C30002FFB0490019BDB6A04991846FFF7A8FD2F
:105C4000019B5B6A9B681B0443F05402019B1A632F
:105C5000019B5B6A9B681B0443F01402019B5A631F
:105C6000019B93F83D30072B08D8019B5A6B019B91
:105C70005A63019B1A6B019B1A630BE0019B5B6BE0
:105C800043F42052019B5A63019B1B6B43F4205247
:105C9000019B1A63079B43F003030793019B93F84F
:105CA0003C30DA01019B93F83930DB001A43019B49
:105CB00093F838309B001A43019B93F83B305B000C
:105CC0001343019A92F83A201343069A134306931A
:105CD000019B93F83D301B02079A13430793019BE6
:105CE00093F83830012B0DD1019B93F83E30012BF6
:105CF00008D1019B93F83F30012B03D0079B43F061
:105D000008030793019B1A68079941F204030B43A8
